:100000001DC018C12BC02AC029C0CAC027C026C025
:1000100025C024C023C022C021C020C01FC00000B2
:100020000000370000000000380002020202020255
:1000300001020408102001020000040011241FBE68
:10004000CFE5D2E0DEBFCDBF20E0A0E6B0E001C04A
:100050001D92AC36B207E1F7FDD074C1D1CFE6E313
:10006000F0E02491E0E3F0E09491EAE2F0E0E49142
:10007000EE23C1F0222329F02130A9F42AB52F77ED
:100080002ABDF0E0EE0FFF1FEC5DFF4FA591B4918C
:1000900081111AC08FB7F8942C91E92FE095E223D3
:1000A000EC938FBF0895223019F42AB52F7DE8CF45
:1000B000233021F420B72F7D20BFE3CF243009F770
:1000C0002CB52F7D2CBDDDCF8FB7F894EC91E92BAB
:1000D000E7CFCF93DF9390E0FC01E05DFF4F2491E9
:1000E000865D9F4FFC0184918823D1F090E0880FBA
:1000F000991FFC01E25EFF4FA591B491FC01EC5DFC
:10010000FF4FC591D491623071F49FB7F8943C9140
:10011000822F809583238C93E8812E2B28839FBF89
:10012000DF91CF9108958FB7F894EC912E2B2C93FB
:100130008FBFF6CFCF93DF9300D000D0CDB7DEB71F
:100140001C821B822B813C8128173907A8F41A8254
:10015000198229813A81213331053CF429813A8180
:100160002F5F3F4F3A832983F4CF2B813C812F5F50
:100170003F4F3C832B83E6CF0F900F900F900F9053
:10018000DF91CF910895CF93DF93EC0181E067DF9A
:10019000CE01D0DF80E063DFCE01DF91CF91CACF07
:1001A0001F920F920FB60F9211242F933F938F93AC
:1001B0009F93AF93BF938091680090916900A09145
:1001C0006A00B0916B003091670026E0230F2D3755
:1001D00068F129E8230F0396A11DB11D2093670044
:1001E0008093680090936900A0936A00B0936B00BD
:1001F0008091630090916400A0916500B0916600C9
:100200000196A11DB11D8093630090936400A0939B
:100210006500B0936600BF91AF919F918F913F9120
:100220002F910F900FBE0F901F9018950296A11D51
:10023000B11DD4CF1F920F920FB60F9211248F933E
:10024000F89481E0809362008F910F900FBE0F9021
:100250001F90189581B781BF78948AB582608ABD56
:100260008AB581608ABD83B7887F826083BF7894B6
:1002700089B7826089BF80B7807F80BF80B7806880
:1002800080BF80B7806480BF8CB580648CBD8FEFE9
:100290008DBD80B7846080BF86B18877836886B95A
:1002A000379AF89461E080E014DF62E082E011DFC9
:1002B00062E085E00EDF8BB780648BBF8BB78F7DEC
:1002C0008BBF85B78E7F85BF85B78D7F85BF8091BA
:1002D000620081111EC010926100109260001092A5
:1002E00062008AEF90E04FDF8AEF90E04CDF8AEF08
:1002F00090E049DF80B5826080BD379885B7877E02
:10030000806185BF789485B7806285BF8895F894B1
:10031000DECFC0916000D09161002196D093610042
:10032000C09360001092620088EE93E02CDF10E032
:1003300000E00C171D07F0F688EC90E024DF0F5F5B
:080340001F4FF7CFF894FFCF27
:00000001FF
