:100000001DC02CC02BC02AC029C0E4C027C026C0F8
:1000100025C024C023C022C021C020C01FC00000B2
:100020000000370000000000380002020202020255
:1000300001020408102001020000040011241FBE68
:10004000CFE5D2E0DEBFCDBF20E0A0E6B0E001C04A
:100050001D92A936B207E1F707D18DC1D1CFE6E3F2
:10006000F0E02491E0E3F0E09491EAE2F0E0E49142
:10007000EE23C1F0222329F02130A9F42AB52F77ED
:100080002ABDF0E0EE0FFF1FEC5DFF4FA591B4918C
:1000900081111AC08FB7F8942C91E92FE095E223D3
:1000A000EC938FBF0895223019F42AB52F7DE8CF45
:1000B000233021F420B72F7D20BFE3CF243009F770
:1000C0002CB52F7D2CBDDDCF8FB7F894EC91E92BAB
:1000D000E7CFCF93DF9390E0FC01E05DFF4F2491E9
:1000E000865D9F4FFC0184918823D1F090E0880FBA
:1000F000991FFC01E25EFF4FA591B491FC01EC5DFC
:10010000FF4FC591D491623071F49FB7F8943C9140
:10011000822F809583238C93E8812E2B28839FBF89
:10012000DF91CF9108958FB7F894EC912E2B2C93FB
:100130008FBFF6CF3FB7F89480916500909166002D
:10014000A0916700B091680022B708B601FE05C013
:100150002F3F19F00196A11DB11D3FBFBA2FA92F46
:10016000982F8827BC01CD01620F711D811D911D43
:1001700043E0660F771F881F991F4A95D1F70895AE
:10018000CF92DF92EF92FF92CF93DF936B017C01CE
:10019000D1DFEB01CFDF6C1B7D0B683E7340A0F01D
:1001A000C114D104E104F10439F4DF91CF91FF903F
:1001B000EF90DF90CF90089581E0C81AD108E10850
:1001C000F108C851DC4FE6CFC114D104E104F104B9
:1001D00009F7EBCF1F920F920FB60F9211242F93B6
:1001E0003F938F939F93AF93BF93809161009091C2
:1001F0006200A0916300B09164003091600026E03D
:10020000230F2D3768F129E8230F0396A11DB11D97
:10021000209360008093610090936200A09363003C
:10022000B09364008091650090916600A091670092
:10023000B09168000196A11DB11D80936500909357
:100240006600A0936700B0936800BF91AF919F9143
:100250008F913F912F910F900FBE0F901F90189587
:100260000296A11DB11DD4CF81B781BF78948AB504
:1002700082608ABD8AB581608ABD83B7887F8260CB
:1002800083BF789489B7826089BF80B7807F80BF41
:1002900080B7806880BF80B7806480BF8CB5806481
:1002A0008CBD8FEF8DBD80B7846080BF86B18877AD
:1002B000836886B9379A61E080E00BDF62E081E015
:1002C00008DF62E082E005DF62E083E002DF62E0F7
:1002D00084E0FFDE62E085E0FCDE80E823E030E0E1
:1002E0000FB6F89486BD26BD0FBEC0E888E0E82EA4
:1002F000F12C03E010E081E0B2DE60ED77E080E019
:1003000090E03EDF80E0ABDE60EA7FE080E090E0FE
:1003100037DF379860EA7FE080E090E031DF379A9E
:1003200060EA7FE080E090E02BDFC7010FB6F89431
:10033000C6BD86BD0FBE81E092DE6DE770E080E055
:1003400090E01EDF80E08BDE6DE770E080E090E003
:1003500017DF37986DE770E080E090E011DF379AA3
:100360006DE770E080E090E00BDF0FB6F894C6BD5B
:0A03700006BD0FBEC0CFF894FFCF0A
:00000001FF
